{
  "_format": "hh-sol-artifact-1",
  "contractName": "IFO",
  "sourceName": "contracts/IFO.sol",
  "abi": [
    {
      "inputs": [
        {
          "internalType": "contract IERC20",
          "name": "_lpToken",
          "type": "address"
        },
        {
          "internalType": "contract IERC20",
          "name": "_offeringToken",
          "type": "address"
        },
        {
          "internalType": "uint256",
          "name": "_startBlock",
          "type": "uint256"
        },
        {
          "internalType": "uint256",
          "name": "_endBlock",
          "type": "uint256"
        },
        {
          "internalType": "uint256",
          "name": "_offeringAmount",
          "type": "uint256"
        },
        {
          "internalType": "uint256",
          "name": "_raisingAmount",
          "type": "uint256"
        },
        {
          "internalType": "address",
          "name": "_adminAddress",
          "type": "address"
        }
      ],
      "stateMutability": "nonpayable",
      "type": "constructor"
    },
    {
      "anonymous": false,
      "inputs": [
        {
          "indexed": true,
          "internalType": "address",
          "name": "user",
          "type": "address"
        },
        {
          "indexed": false,
          "internalType": "uint256",
          "name": "amount",
          "type": "uint256"
        }
      ],
      "name": "Deposit",
      "type": "event"
    },
    {
      "anonymous": false,
      "inputs": [
        {
          "indexed": true,
          "internalType": "address",
          "name": "user",
          "type": "address"
        },
        {
          "indexed": false,
          "internalType": "uint256",
          "name": "offeringAmount",
          "type": "uint256"
        },
        {
          "indexed": false,
          "internalType": "uint256",
          "name": "excessAmount",
          "type": "uint256"
        }
      ],
      "name": "Harvest",
      "type": "event"
    },
    {
      "inputs": [
        {
          "internalType": "uint256",
          "name": "",
          "type": "uint256"
        }
      ],
      "name": "addressList",
      "outputs": [
        {
          "internalType": "address",
          "name": "",
          "type": "address"
        }
      ],
      "stateMutability": "view",
      "type": "function"
    },
    {
      "inputs": [],
      "name": "adminAddress",
      "outputs": [
        {
          "internalType": "address",
          "name": "",
          "type": "address"
        }
      ],
      "stateMutability": "view",
      "type": "function"
    },
    {
      "inputs": [
        {
          "internalType": "uint256",
          "name": "_amount",
          "type": "uint256"
        }
      ],
      "name": "deposit",
      "outputs": [],
      "stateMutability": "nonpayable",
      "type": "function"
    },
    {
      "inputs": [],
      "name": "endBlock",
      "outputs": [
        {
          "internalType": "uint256",
          "name": "",
          "type": "uint256"
        }
      ],
      "stateMutability": "view",
      "type": "function"
    },
    {
      "inputs": [
        {
          "internalType": "uint256",
          "name": "_lpAmount",
          "type": "uint256"
        },
        {
          "internalType": "uint256",
          "name": "_offerAmount",
          "type": "uint256"
        }
      ],
      "name": "finalWithdraw",
      "outputs": [],
      "stateMutability": "nonpayable",
      "type": "function"
    },
    {
      "inputs": [],
      "name": "getAddressListLength",
      "outputs": [
        {
          "internalType": "uint256",
          "name": "",
          "type": "uint256"
        }
      ],
      "stateMutability": "view",
      "type": "function"
    },
    {
      "inputs": [
        {
          "internalType": "address",
          "name": "_user",
          "type": "address"
        }
      ],
      "name": "getOfferingAmount",
      "outputs": [
        {
          "internalType": "uint256",
          "name": "",
          "type": "uint256"
        }
      ],
      "stateMutability": "view",
      "type": "function"
    },
    {
      "inputs": [
        {
          "internalType": "address",
          "name": "_user",
          "type": "address"
        }
      ],
      "name": "getRefundingAmount",
      "outputs": [
        {
          "internalType": "uint256",
          "name": "",
          "type": "uint256"
        }
      ],
      "stateMutability": "view",
      "type": "function"
    },
    {
      "inputs": [
        {
          "internalType": "address",
          "name": "_user",
          "type": "address"
        }
      ],
      "name": "getUserAllocation",
      "outputs": [
        {
          "internalType": "uint256",
          "name": "",
          "type": "uint256"
        }
      ],
      "stateMutability": "view",
      "type": "function"
    },
    {
      "inputs": [],
      "name": "harvest",
      "outputs": [],
      "stateMutability": "nonpayable",
      "type": "function"
    },
    {
      "inputs": [
        {
          "internalType": "address",
          "name": "_user",
          "type": "address"
        }
      ],
      "name": "hasHarvest",
      "outputs": [
        {
          "internalType": "bool",
          "name": "",
          "type": "bool"
        }
      ],
      "stateMutability": "view",
      "type": "function"
    },
    {
      "inputs": [],
      "name": "lpToken",
      "outputs": [
        {
          "internalType": "contract IERC20",
          "name": "",
          "type": "address"
        }
      ],
      "stateMutability": "view",
      "type": "function"
    },
    {
      "inputs": [],
      "name": "offeringAmount",
      "outputs": [
        {
          "internalType": "uint256",
          "name": "",
          "type": "uint256"
        }
      ],
      "stateMutability": "view",
      "type": "function"
    },
    {
      "inputs": [],
      "name": "offeringToken",
      "outputs": [
        {
          "internalType": "contract IERC20",
          "name": "",
          "type": "address"
        }
      ],
      "stateMutability": "view",
      "type": "function"
    },
    {
      "inputs": [],
      "name": "raisingAmount",
      "outputs": [
        {
          "internalType": "uint256",
          "name": "",
          "type": "uint256"
        }
      ],
      "stateMutability": "view",
      "type": "function"
    },
    {
      "inputs": [
        {
          "internalType": "uint256",
          "name": "_offerAmount",
          "type": "uint256"
        }
      ],
      "name": "setOfferingAmount",
      "outputs": [],
      "stateMutability": "nonpayable",
      "type": "function"
    },
    {
      "inputs": [
        {
          "internalType": "uint256",
          "name": "_raisingAmount",
          "type": "uint256"
        }
      ],
      "name": "setRaisingAmount",
      "outputs": [],
      "stateMutability": "nonpayable",
      "type": "function"
    },
    {
      "inputs": [],
      "name": "startBlock",
      "outputs": [
        {
          "internalType": "uint256",
          "name": "",
          "type": "uint256"
        }
      ],
      "stateMutability": "view",
      "type": "function"
    },
    {
      "inputs": [],
      "name": "totalAmount",
      "outputs": [
        {
          "internalType": "uint256",
          "name": "",
          "type": "uint256"
        }
      ],
      "stateMutability": "view",
      "type": "function"
    },
    {
      "inputs": [
        {
          "internalType": "address",
          "name": "",
          "type": "address"
        }
      ],
      "name": "userInfo",
      "outputs": [
        {
          "internalType": "uint256",
          "name": "amount",
          "type": "uint256"
        },
        {
          "internalType": "bool",
          "name": "claimed",
          "type": "bool"
        }
      ],
      "stateMutability": "view",
      "type": "function"
    }
  ],
  "bytecode": "0x60806040523480156200001157600080fd5b506040516200238938038062002389833981810160405281019062000037919062000178565b600160008190555086600260006101000a81548173ffffffffffffffffffffffffffffffffffffffff021916908373ffffffffffffffffffffffffffffffffffffffff16021790555085600360006101000a81548173ffffffffffffffffffffffffffffffffffffffff021916908373ffffffffffffffffffffffffffffffffffffffff16021790555084600481905550836005819055508260078190555081600681905550600060088190555080600160006101000a81548173ffffffffffffffffffffffffffffffffffffffff021916908373ffffffffffffffffffffffffffffffffffffffff16021790555050505050505050620002c5565b600081519050620001448162000277565b92915050565b6000815190506200015b8162000291565b92915050565b6000815190506200017281620002ab565b92915050565b600080600080600080600060e0888a0312156200019457600080fd5b6000620001a48a828b016200014a565b9750506020620001b78a828b016200014a565b9650506040620001ca8a828b0162000161565b9550506060620001dd8a828b0162000161565b9450506080620001f08a828b0162000161565b93505060a0620002038a828b0162000161565b92505060c0620002168a828b0162000133565b91505092959891949750929550565b600062000232826200024d565b9050919050565b6000620002468262000225565b9050919050565b600073ffffffffffffffffffffffffffffffffffffffff82169050919050565b6000819050919050565b620002828162000225565b81146200028e57600080fd5b50565b6200029c8162000239565b8114620002a857600080fd5b50565b620002b6816200026d565b8114620002c257600080fd5b50565b6120b480620002d56000396000f3fe608060405234801561001057600080fd5b506004361061012c5760003560e01c806387e97bc6116100ad578063b810fb4311610071578063b810fb4314610320578063b920ade214610350578063e1af9a9514610380578063fc00358e1461039e578063fc6f9468146103bc5761012c565b806387e97bc61461027c5780639c0a7669146102ac5780639f1b5248146102ca578063b6b55f25146102e6578063b7813607146103025761012c565b80634225c32f116100f45780634225c32f146101ea5780634641257d1461020657806348cd4cb1146102105780635fcbd2851461022e57806364ce9fff1461024c5761012c565b8063083c6323146101315780631959a0021461014f5780631a39d8ef1461018057806327d1b1a21461019e5780632f5105f8146101ba575b600080fd5b6101396103da565b6040516101469190611d77565b60405180910390f35b610169600480360381019061016491906115db565b6103e0565b604051610177929190611d92565b60405180910390f35b610188610411565b6040516101959190611d77565b60405180910390f35b6101b860048036038101906101b3919061162d565b610417565b005b6101d460048036038101906101cf91906115db565b6104f5565b6040516101e19190611d77565b60405180910390f35b61020460048036038101906101ff919061162d565b6105a5565b005b61020e610683565b005b61021861099f565b6040516102259190611d77565b60405180910390f35b6102366109a5565b6040516102439190611b9a565b60405180910390f35b610266600480360381019061026191906115db565b6109cb565b6040516102739190611b7f565b60405180910390f35b610296600480360381019061029191906115db565b610a24565b6040516102a39190611d77565b60405180910390f35b6102b4610ae4565b6040516102c19190611d77565b60405180910390f35b6102e460048036038101906102df919061167f565b610aea565b005b61030060048036038101906102fb919061162d565b610df0565b005b61030a611089565b6040516103179190611b9a565b60405180910390f35b61033a6004803603810190610335919061162d565b6110af565b6040516103479190611b04565b60405180910390f35b61036a600480360381019061036591906115db565b6110ee565b6040516103779190611d77565b60405180910390f35b61038861117a565b6040516103959190611d77565b60405180910390f35b6103a6611180565b6040516103b39190611d77565b60405180910390f35b6103c461118d565b6040516103d19190611b04565b60405180910390f35b60055481565b60096020528060005260406000206000915090508060000154908060010160009054906101000a900460ff16905082565b60085481565b600160009054906101000a900473ffffffffffffffffffffffffffffffffffffffff1673ffffffffffffffffffffffffffffffffffffffff163373ffffffffffffffffffffffffffffffffffffffff16146104a7576040517f08c379a000000000000000000000000000000000000000000000000000000000815260040161049e90611c97565b60405180910390fd5b60045443106104eb576040517f08c379a00000000000000000000000000000000000000000000000000000000081526004016104e290611c57565b60405180910390fd5b8060078190555050565b60006006546008541161050b57600090506105a0565b6000610516836110ee565b90506000610544620f4240610536846006546111b390919063ffffffff16565b6111c990919063ffffffff16565b905061059b81600960008773ffffffffffffffffffffffffffffffffffffffff1673ffffffffffffffffffffffffffffffffffffffff168152602001908152602001600020600001546111df90919063ffffffff16565b925050505b919050565b600160009054906101000a900473ffffffffffffffffffffffffffffffffffffffff1673ffffffffffffffffffffffffffffffffffffffff163373ffffffffffffffffffffffffffffffffffffffff1614610635576040517f08c379a000000000000000000000000000000000000000000000000000000000815260040161062c90611c97565b60405180910390fd5b6004544310610679576040517f08c379a000000000000000000000000000000000000000000000000000000000815260040161067090611c57565b60405180910390fd5b8060068190555050565b600260005414156106c9576040517f08c379a00000000000000000000000000000000000000000000000000000000081526004016106c090611d37565b60405180910390fd5b60026000819055506005544311610715576040517f08c379a000000000000000000000000000000000000000000000000000000000815260040161070c90611cd7565b60405180910390fd5b6000600960003373ffffffffffffffffffffffffffffffffffffffff1673ffffffffffffffffffffffffffffffffffffffff168152602001908152602001600020600001541161079a576040517f08c379a000000000000000000000000000000000000000000000000000000000815260040161079190611c77565b60405180910390fd5b600960003373ffffffffffffffffffffffffffffffffffffffff1673ffffffffffffffffffffffffffffffffffffffff16815260200190815260200160002060010160009054906101000a900460ff161561082a576040517f08c379a000000000000000000000000000000000000000000000000000000000815260040161082190611d57565b60405180910390fd5b600061083533610a24565b90506000610842336104f5565b90506108913383600360009054906101000a900473ffffffffffffffffffffffffffffffffffffffff1673ffffffffffffffffffffffffffffffffffffffff166111f59092919063ffffffff16565b60008111156108e8576108e73382600260009054906101000a900473ffffffffffffffffffffffffffffffffffffffff1673ffffffffffffffffffffffffffffffffffffffff166111f59092919063ffffffff16565b5b6001600960003373ffffffffffffffffffffffffffffffffffffffff1673ffffffffffffffffffffffffffffffffffffffff16815260200190815260200160002060010160006101000a81548160ff0219169083151502179055503373ffffffffffffffffffffffffffffffffffffffff167f71bab65ced2e5750775a0613be067df48ef06cf92a496ebf7663ae0660924954838360405161098b929190611dbb565b60405180910390a250506001600081905550565b60045481565b600260009054906101000a900473ffffffffffffffffffffffffffffffffffffffff1681565b6000600960008373ffffffffffffffffffffffffffffffffffffffff1673ffffffffffffffffffffffffffffffffffffffff16815260200190815260200160002060010160009054906101000a900460ff169050919050565b60006006546008541115610a71576000610a3d836110ee565b9050610a69620f4240610a5b836007546111b390919063ffffffff16565b6111c990919063ffffffff16565b915050610adf565b610adc600654610ace600754600960008773ffffffffffffffffffffffffffffffffffffffff1673ffffffffffffffffffffffffffffffffffffffff168152602001908152602001600020600001546111b390919063ffffffff16565b6111c990919063ffffffff16565b90505b919050565b60065481565b600160009054906101000a900473ffffffffffffffffffffffffffffffffffffffff1673ffffffffffffffffffffffffffffffffffffffff163373ffffffffffffffffffffffffffffffffffffffff1614610b7a576040517f08c379a0000000000000000000000000000000000000000000000000000000008152600401610b7190611c97565b60405180910390fd5b600260009054906101000a900473ffffffffffffffffffffffffffffffffffffffff1673ffffffffffffffffffffffffffffffffffffffff166370a08231306040518263ffffffff1660e01b8152600401610bd59190611b04565b60206040518083038186803b158015610bed57600080fd5b505afa158015610c01573d6000803e3d6000fd5b505050506040513d601f19601f82011682018060405250810190610c259190611656565b8210610c66576040517f08c379a0000000000000000000000000000000000000000000000000000000008152600401610c5d90611cb7565b60405180910390fd5b600360009054906101000a900473ffffffffffffffffffffffffffffffffffffffff1673ffffffffffffffffffffffffffffffffffffffff166370a08231306040518263ffffffff1660e01b8152600401610cc19190611b04565b60206040518083038186803b158015610cd957600080fd5b505afa158015610ced573d6000803e3d6000fd5b505050506040513d601f19601f82011682018060405250810190610d119190611656565b8110610d52576040517f08c379a0000000000000000000000000000000000000000000000000000000008152600401610d4990611bf7565b60405180910390fd5b610d9f3383600260009054906101000a900473ffffffffffffffffffffffffffffffffffffffff1673ffffffffffffffffffffffffffffffffffffffff166111f59092919063ffffffff16565b610dec3382600360009054906101000a900473ffffffffffffffffffffffffffffffffffffffff1673ffffffffffffffffffffffffffffffffffffffff166111f59092919063ffffffff16565b5050565b60045443118015610e02575060055443105b610e41576040517f08c379a0000000000000000000000000000000000000000000000000000000008152600401610e3890611c37565b60405180910390fd5b60008111610e84576040517f08c379a0000000000000000000000000000000000000000000000000000000008152600401610e7b90611bd7565b60405180910390fd5b610ed3333083600260009054906101000a900473ffffffffffffffffffffffffffffffffffffffff1673ffffffffffffffffffffffffffffffffffffffff1661127b909392919063ffffffff16565b6000600960003373ffffffffffffffffffffffffffffffffffffffff1673ffffffffffffffffffffffffffffffffffffffff168152602001908152602001600020600001541415610f8257600a339080600181540180825580915050600190039060005260206000200160009091909190916101000a81548173ffffffffffffffffffffffffffffffffffffffff021916908373ffffffffffffffffffffffffffffffffffffffff1602179055505b610fd781600960003373ffffffffffffffffffffffffffffffffffffffff1673ffffffffffffffffffffffffffffffffffffffff1681526020019081526020016000206000015461130490919063ffffffff16565b600960003373ffffffffffffffffffffffffffffffffffffffff1673ffffffffffffffffffffffffffffffffffffffff168152602001908152602001600020600001819055506110328160085461130490919063ffffffff16565b6008819055503373ffffffffffffffffffffffffffffffffffffffff167fe1fffcc4923d04b559f4d29a8bfc6cda04eb5b0d3c460751c2402c5c5cc9109c8260405161107e9190611d77565b60405180910390a250565b600360009054906101000a900473ffffffffffffffffffffffffffffffffffffffff1681565b600a81815481106110bf57600080fd5b906000526020600020016000915054906101000a900473ffffffffffffffffffffffffffffffffffffffff1681565b6000611173620f424061116560085461115764e8d4a51000600960008973ffffffffffffffffffffffffffffffffffffffff1673ffffffffffffffffffffffffffffffffffffffff168152602001908152602001600020600001546111b390919063ffffffff16565b6111c990919063ffffffff16565b6111c990919063ffffffff16565b9050919050565b60075481565b6000600a80549050905090565b600160009054906101000a900473ffffffffffffffffffffffffffffffffffffffff1681565b600081836111c19190611e9d565b905092915050565b600081836111d79190611e6c565b905092915050565b600081836111ed9190611ef7565b905092915050565b6112768363a9059cbb60e01b8484604051602401611214929190611b56565b604051602081830303815290604052907bffffffffffffffffffffffffffffffffffffffffffffffffffffffff19166020820180517bffffffffffffffffffffffffffffffffffffffffffffffffffffffff838183161783525050505061131a565b505050565b6112fe846323b872dd60e01b85858560405160240161129c93929190611b1f565b604051602081830303815290604052907bffffffffffffffffffffffffffffffffffffffffffffffffffffffff19166020820180517bffffffffffffffffffffffffffffffffffffffffffffffffffffffff838183161783525050505061131a565b50505050565b600081836113129190611e16565b905092915050565b600061137c826040518060400160405280602081526020017f5361666545524332303a206c6f772d6c6576656c2063616c6c206661696c65648152508573ffffffffffffffffffffffffffffffffffffffff166113e19092919063ffffffff16565b90506000815111156113dc578080602001905181019061139c9190611604565b6113db576040517f08c379a00000000000000000000000000000000000000000000000000000000081526004016113d290611d17565b60405180910390fd5b5b505050565b60606113f084846000856113f9565b90509392505050565b60608247101561143e576040517f08c379a000000000000000000000000000000000000000000000000000000000815260040161143590611c17565b60405180910390fd5b6114478561150d565b611486576040517f08c379a000000000000000000000000000000000000000000000000000000000815260040161147d90611cf7565b60405180910390fd5b6000808673ffffffffffffffffffffffffffffffffffffffff1685876040516114af9190611aed565b60006040518083038185875af1925050503d80600081146114ec576040519150601f19603f3d011682016040523d82523d6000602084013e6114f1565b606091505b5091509150611501828286611520565b92505050949350505050565b600080823b905060008111915050919050565b6060831561153057829050611580565b6000835111156115435782518084602001fd5b816040517f08c379a00000000000000000000000000000000000000000000000000000000081526004016115779190611bb5565b60405180910390fd5b9392505050565b60008135905061159681612039565b92915050565b6000815190506115ab81612050565b92915050565b6000813590506115c081612067565b92915050565b6000815190506115d581612067565b92915050565b6000602082840312156115ed57600080fd5b60006115fb84828501611587565b91505092915050565b60006020828403121561161657600080fd5b60006116248482850161159c565b91505092915050565b60006020828403121561163f57600080fd5b600061164d848285016115b1565b91505092915050565b60006020828403121561166857600080fd5b6000611676848285016115c6565b91505092915050565b6000806040838503121561169257600080fd5b60006116a0858286016115b1565b92505060206116b1858286016115b1565b9150509250929050565b6116c481611f2b565b82525050565b6116d381611f3d565b82525050565b60006116e482611de4565b6116ee8185611dfa565b93506116fe818560208601611f97565b80840191505092915050565b61171381611f73565b82525050565b600061172482611def565b61172e8185611e05565b935061173e818560208601611f97565b61174781612028565b840191505092915050565b600061175f601083611e05565b91507f6e656564205f616d6f756e74203e2030000000000000000000000000000000006000830152602082019050919050565b600061179f601283611e05565b91507f6e6f7420656e6f75676820746f6b656e203100000000000000000000000000006000830152602082019050919050565b60006117df602683611e05565b91507f416464726573733a20696e73756666696369656e742062616c616e636520666f60008301527f722063616c6c00000000000000000000000000000000000000000000000000006020830152604082019050919050565b6000611845600c83611e05565b91507f6e6f742069666f2074696d6500000000000000000000000000000000000000006000830152602082019050919050565b6000611885600283611e05565b91507f6e6f0000000000000000000000000000000000000000000000000000000000006000830152602082019050919050565b60006118c5601683611e05565b91507f6861766520796f75207061727469636970617465643f000000000000000000006000830152602082019050919050565b6000611905600b83611e05565b91507f61646d696e3a207775743f0000000000000000000000000000000000000000006000830152602082019050919050565b6000611945601283611e05565b91507f6e6f7420656e6f75676820746f6b656e203000000000000000000000000000006000830152602082019050919050565b6000611985601083611e05565b91507f6e6f7420686172766573742074696d65000000000000000000000000000000006000830152602082019050919050565b60006119c5601d83611e05565b91507f416464726573733a2063616c6c20746f206e6f6e2d636f6e74726163740000006000830152602082019050919050565b6000611a05602a83611e05565b91507f5361666545524332303a204552433230206f7065726174696f6e20646964206e60008301527f6f742073756363656564000000000000000000000000000000000000000000006020830152604082019050919050565b6000611a6b601f83611e05565b91507f5265656e7472616e637947756172643a207265656e7472616e742063616c6c006000830152602082019050919050565b6000611aab601283611e05565b91507f6e6f7468696e6720746f206861727665737400000000000000000000000000006000830152602082019050919050565b611ae781611f69565b82525050565b6000611af982846116d9565b915081905092915050565b6000602082019050611b1960008301846116bb565b92915050565b6000606082019050611b3460008301866116bb565b611b4160208301856116bb565b611b4e6040830184611ade565b949350505050565b6000604082019050611b6b60008301856116bb565b611b786020830184611ade565b9392505050565b6000602082019050611b9460008301846116ca565b92915050565b6000602082019050611baf600083018461170a565b92915050565b60006020820190508181036000830152611bcf8184611719565b905092915050565b60006020820190508181036000830152611bf081611752565b9050919050565b60006020820190508181036000830152611c1081611792565b9050919050565b60006020820190508181036000830152611c30816117d2565b9050919050565b60006020820190508181036000830152611c5081611838565b9050919050565b60006020820190508181036000830152611c7081611878565b9050919050565b60006020820190508181036000830152611c90816118b8565b9050919050565b60006020820190508181036000830152611cb0816118f8565b9050919050565b60006020820190508181036000830152611cd081611938565b9050919050565b60006020820190508181036000830152611cf081611978565b9050919050565b60006020820190508181036000830152611d10816119b8565b9050919050565b60006020820190508181036000830152611d30816119f8565b9050919050565b60006020820190508181036000830152611d5081611a5e565b9050919050565b60006020820190508181036000830152611d7081611a9e565b9050919050565b6000602082019050611d8c6000830184611ade565b92915050565b6000604082019050611da76000830185611ade565b611db460208301846116ca565b9392505050565b6000604082019050611dd06000830185611ade565b611ddd6020830184611ade565b9392505050565b600081519050919050565b600081519050919050565b600081905092915050565b600082825260208201905092915050565b6000611e2182611f69565b9150611e2c83611f69565b9250827fffffffffffffffffffffffffffffffffffffffffffffffffffffffffffffffff03821115611e6157611e60611fca565b5b828201905092915050565b6000611e7782611f69565b9150611e8283611f69565b925082611e9257611e91611ff9565b5b828204905092915050565b6000611ea882611f69565b9150611eb383611f69565b9250817fffffffffffffffffffffffffffffffffffffffffffffffffffffffffffffffff0483118215151615611eec57611eeb611fca565b5b828202905092915050565b6000611f0282611f69565b9150611f0d83611f69565b925082821015611f2057611f1f611fca565b5b828203905092915050565b6000611f3682611f49565b9050919050565b60008115159050919050565b600073ffffffffffffffffffffffffffffffffffffffff82169050919050565b6000819050919050565b6000611f7e82611f85565b9050919050565b6000611f9082611f49565b9050919050565b60005b83811015611fb5578082015181840152602081019050611f9a565b83811115611fc4576000848401525b50505050565b7f4e487b7100000000000000000000000000000000000000000000000000000000600052601160045260246000fd5b7f4e487b7100000000000000000000000000000000000000000000000000000000600052601260045260246000fd5b6000601f19601f8301169050919050565b61204281611f2b565b811461204d57600080fd5b50565b61205981611f3d565b811461206457600080fd5b50565b61207081611f69565b811461207b57600080fd5b5056fea264697066735822122091e0dc5821deb381cfe0ad75ca9230fe83700b2df351bb24ea37d1d4f5484a2b64736f6c63430008000033",
  "linkReferences": {},
  "deployedLinkReferences": {}
}