{
  "_format": "hh-sol-artifact-1",
  "contractName": "IFOByProxy",
  "sourceName": "contracts/IFOByProxy.sol",
  "abi": [
    {
      "inputs": [],
      "stateMutability": "nonpayable",
      "type": "constructor"
    },
    {
      "anonymous": false,
      "inputs": [
        {
          "indexed": true,
          "internalType": "address",
          "name": "user",
          "type": "address"
        },
        {
          "indexed": false,
          "internalType": "uint256",
          "name": "amount",
          "type": "uint256"
        }
      ],
      "name": "Deposit",
      "type": "event"
    },
    {
      "anonymous": false,
      "inputs": [
        {
          "indexed": true,
          "internalType": "address",
          "name": "user",
          "type": "address"
        },
        {
          "indexed": false,
          "internalType": "uint256",
          "name": "offeringAmount",
          "type": "uint256"
        },
        {
          "indexed": false,
          "internalType": "uint256",
          "name": "excessAmount",
          "type": "uint256"
        }
      ],
      "name": "Harvest",
      "type": "event"
    },
    {
      "inputs": [
        {
          "internalType": "uint256",
          "name": "",
          "type": "uint256"
        }
      ],
      "name": "addressList",
      "outputs": [
        {
          "internalType": "address",
          "name": "",
          "type": "address"
        }
      ],
      "stateMutability": "view",
      "type": "function"
    },
    {
      "inputs": [],
      "name": "adminAddress",
      "outputs": [
        {
          "internalType": "address",
          "name": "",
          "type": "address"
        }
      ],
      "stateMutability": "view",
      "type": "function"
    },
    {
      "inputs": [
        {
          "internalType": "uint256",
          "name": "_amount",
          "type": "uint256"
        }
      ],
      "name": "deposit",
      "outputs": [],
      "stateMutability": "nonpayable",
      "type": "function"
    },
    {
      "inputs": [],
      "name": "endBlock",
      "outputs": [
        {
          "internalType": "uint256",
          "name": "",
          "type": "uint256"
        }
      ],
      "stateMutability": "view",
      "type": "function"
    },
    {
      "inputs": [
        {
          "internalType": "uint256",
          "name": "_lpAmount",
          "type": "uint256"
        },
        {
          "internalType": "uint256",
          "name": "_offerAmount",
          "type": "uint256"
        }
      ],
      "name": "finalWithdraw",
      "outputs": [],
      "stateMutability": "nonpayable",
      "type": "function"
    },
    {
      "inputs": [],
      "name": "getAddressListLength",
      "outputs": [
        {
          "internalType": "uint256",
          "name": "",
          "type": "uint256"
        }
      ],
      "stateMutability": "view",
      "type": "function"
    },
    {
      "inputs": [
        {
          "internalType": "address",
          "name": "_user",
          "type": "address"
        }
      ],
      "name": "getOfferingAmount",
      "outputs": [
        {
          "internalType": "uint256",
          "name": "",
          "type": "uint256"
        }
      ],
      "stateMutability": "view",
      "type": "function"
    },
    {
      "inputs": [
        {
          "internalType": "address",
          "name": "_user",
          "type": "address"
        }
      ],
      "name": "getRefundingAmount",
      "outputs": [
        {
          "internalType": "uint256",
          "name": "",
          "type": "uint256"
        }
      ],
      "stateMutability": "view",
      "type": "function"
    },
    {
      "inputs": [
        {
          "internalType": "address",
          "name": "_user",
          "type": "address"
        }
      ],
      "name": "getUserAllocation",
      "outputs": [
        {
          "internalType": "uint256",
          "name": "",
          "type": "uint256"
        }
      ],
      "stateMutability": "view",
      "type": "function"
    },
    {
      "inputs": [],
      "name": "harvest",
      "outputs": [],
      "stateMutability": "nonpayable",
      "type": "function"
    },
    {
      "inputs": [
        {
          "internalType": "address",
          "name": "_user",
          "type": "address"
        }
      ],
      "name": "hasHarvest",
      "outputs": [
        {
          "internalType": "bool",
          "name": "",
          "type": "bool"
        }
      ],
      "stateMutability": "view",
      "type": "function"
    },
    {
      "inputs": [
        {
          "internalType": "contract IERC20",
          "name": "_lpToken",
          "type": "address"
        },
        {
          "internalType": "contract IERC20",
          "name": "_offeringToken",
          "type": "address"
        },
        {
          "internalType": "uint256",
          "name": "_startBlock",
          "type": "uint256"
        },
        {
          "internalType": "uint256",
          "name": "_endBlock",
          "type": "uint256"
        },
        {
          "internalType": "uint256",
          "name": "_offeringAmount",
          "type": "uint256"
        },
        {
          "internalType": "uint256",
          "name": "_raisingAmount",
          "type": "uint256"
        },
        {
          "internalType": "address",
          "name": "_adminAddress",
          "type": "address"
        }
      ],
      "name": "initialize",
      "outputs": [],
      "stateMutability": "nonpayable",
      "type": "function"
    },
    {
      "inputs": [],
      "name": "lpToken",
      "outputs": [
        {
          "internalType": "contract IERC20",
          "name": "",
          "type": "address"
        }
      ],
      "stateMutability": "view",
      "type": "function"
    },
    {
      "inputs": [],
      "name": "offeringAmount",
      "outputs": [
        {
          "internalType": "uint256",
          "name": "",
          "type": "uint256"
        }
      ],
      "stateMutability": "view",
      "type": "function"
    },
    {
      "inputs": [],
      "name": "offeringToken",
      "outputs": [
        {
          "internalType": "contract IERC20",
          "name": "",
          "type": "address"
        }
      ],
      "stateMutability": "view",
      "type": "function"
    },
    {
      "inputs": [],
      "name": "raisingAmount",
      "outputs": [
        {
          "internalType": "uint256",
          "name": "",
          "type": "uint256"
        }
      ],
      "stateMutability": "view",
      "type": "function"
    },
    {
      "inputs": [
        {
          "internalType": "uint256",
          "name": "_offerAmount",
          "type": "uint256"
        }
      ],
      "name": "setOfferingAmount",
      "outputs": [],
      "stateMutability": "nonpayable",
      "type": "function"
    },
    {
      "inputs": [
        {
          "internalType": "uint256",
          "name": "_raisingAmount",
          "type": "uint256"
        }
      ],
      "name": "setRaisingAmount",
      "outputs": [],
      "stateMutability": "nonpayable",
      "type": "function"
    },
    {
      "inputs": [],
      "name": "startBlock",
      "outputs": [
        {
          "internalType": "uint256",
          "name": "",
          "type": "uint256"
        }
      ],
      "stateMutability": "view",
      "type": "function"
    },
    {
      "inputs": [],
      "name": "totalAmount",
      "outputs": [
        {
          "internalType": "uint256",
          "name": "",
          "type": "uint256"
        }
      ],
      "stateMutability": "view",
      "type": "function"
    },
    {
      "inputs": [
        {
          "internalType": "address",
          "name": "",
          "type": "address"
        }
      ],
      "name": "userInfo",
      "outputs": [
        {
          "internalType": "uint256",
          "name": "amount",
          "type": "uint256"
        },
        {
          "internalType": "bool",
          "name": "claimed",
          "type": "bool"
        }
      ],
      "stateMutability": "view",
      "type": "function"
    }
  ],
  "bytecode": "0x608060405234801561001057600080fd5b506001600081905550612420806100286000396000f3fe608060405234801561001057600080fd5b50600436106101375760003560e01c806383a5041c116100b8578063b78136071161007c578063b781360714610329578063b810fb4314610347578063b920ade214610377578063e1af9a95146103a7578063fc00358e146103c5578063fc6f9468146103e357610137565b806383a5041c1461028757806387e97bc6146102a35780639c0a7669146102d35780639f1b5248146102f1578063b6b55f251461030d57610137565b80634225c32f116100ff5780634225c32f146101f55780634641257d1461021157806348cd4cb11461021b5780635fcbd2851461023957806364ce9fff1461025757610137565b8063083c63231461013c5780631959a0021461015a5780631a39d8ef1461018b57806327d1b1a2146101a95780632f5105f8146101c5575b600080fd5b610144610401565b60405161015191906120ba565b60405180910390f35b610174600480360381019061016f91906117fa565b610407565b6040516101829291906120d5565b60405180910390f35b610193610438565b6040516101a091906120ba565b60405180910390f35b6101c360048036038101906101be91906118ea565b61043e565b005b6101df60048036038101906101da91906117fa565b61051c565b6040516101ec91906120ba565b60405180910390f35b61020f600480360381019061020a91906118ea565b6105cc565b005b6102196106aa565b005b6102236109d0565b60405161023091906120ba565b60405180910390f35b6102416109d6565b60405161024e9190611ebd565b60405180910390f35b610271600480360381019061026c91906117fa565b6109fc565b60405161027e9190611ea2565b60405180910390f35b6102a1600480360381019061029c919061184c565b610a55565b005b6102bd60048036038101906102b891906117fa565b610c1a565b6040516102ca91906120ba565b60405180910390f35b6102db610cda565b6040516102e891906120ba565b60405180910390f35b61030b6004803603810190610306919061193c565b610ce0565b005b610327600480360381019061032291906118ea565b610ffa565b005b610331611293565b60405161033e9190611ebd565b60405180910390f35b610361600480360381019061035c91906118ea565b6112b9565b60405161036e9190611e27565b60405180910390f35b610391600480360381019061038c91906117fa565b6112f8565b60405161039e91906120ba565b60405180910390f35b6103af611384565b6040516103bc91906120ba565b60405180910390f35b6103cd61138a565b6040516103da91906120ba565b60405180910390f35b6103eb611397565b6040516103f89190611e27565b60405180910390f35b60055481565b60096020528060005260406000206000915090508060000154908060010160009054906101000a900460ff16905082565b60085481565b600160029054906101000a900473ffffffffffffffffffffffffffffffffffffffff1673ffffffffffffffffffffffffffffffffffffffff163373ffffffffffffffffffffffffffffffffffffffff16146104ce576040517f08c379a00000000000000000000000000000000000000000000000000000000081526004016104c590611fda565b60405180910390fd5b6004544310610512576040517f08c379a000000000000000000000000000000000000000000000000000000000815260040161050990611f9a565b60405180910390fd5b8060078190555050565b60006006546008541161053257600090506105c7565b600061053d836112f8565b9050600061056b620f424061055d846006546113bd90919063ffffffff16565b6113d390919063ffffffff16565b90506105c281600960008773ffffffffffffffffffffffffffffffffffffffff1673ffffffffffffffffffffffffffffffffffffffff168152602001908152602001600020600001546113e990919063ffffffff16565b925050505b919050565b600160029054906101000a900473ffffffffffffffffffffffffffffffffffffffff1673ffffffffffffffffffffffffffffffffffffffff163373ffffffffffffffffffffffffffffffffffffffff161461065c576040517f08c379a000000000000000000000000000000000000000000000000000000000815260040161065390611fda565b60405180910390fd5b60045443106106a0576040517f08c379a000000000000000000000000000000000000000000000000000000000815260040161069790611f9a565b60405180910390fd5b8060068190555050565b600260005414156106f0576040517f08c379a00000000000000000000000000000000000000000000000000000000081526004016106e79061207a565b60405180910390fd5b6002600081905550600554431161073c576040517f08c379a00000000000000000000000000000000000000000000000000000000081526004016107339061201a565b60405180910390fd5b6000600960003373ffffffffffffffffffffffffffffffffffffffff1673ffffffffffffffffffffffffffffffffffffffff16815260200190815260200160002060000154116107c1576040517f08c379a00000000000000000000000000000000000000000000000000000000081526004016107b890611fba565b60405180910390fd5b600960003373ffffffffffffffffffffffffffffffffffffffff1673ffffffffffffffffffffffffffffffffffffffff16815260200190815260200160002060010160009054906101000a900460ff1615610851576040517f08c379a00000000000000000000000000000000000000000000000000000000081526004016108489061209a565b60405180910390fd5b600061085c33610c1a565b905060006108693361051c565b905060008211156108c2576108c13383600360009054906101000a900473ffffffffffffffffffffffffffffffffffffffff1673ffffffffffffffffffffffffffffffffffffffff166113ff9092919063ffffffff16565b5b6000811115610919576109183382600260009054906101000a900473ffffffffffffffffffffffffffffffffffffffff1673ffffffffffffffffffffffffffffffffffffffff166113ff9092919063ffffffff16565b5b6001600960003373ffffffffffffffffffffffffffffffffffffffff1673ffffffffffffffffffffffffffffffffffffffff16815260200190815260200160002060010160006101000a81548160ff0219169083151502179055503373ffffffffffffffffffffffffffffffffffffffff167f71bab65ced2e5750775a0613be067df48ef06cf92a496ebf7663ae066092495483836040516109bc9291906120fe565b60405180910390a250506001600081905550565b60045481565b600260009054906101000a900473ffffffffffffffffffffffffffffffffffffffff1681565b6000600960008373ffffffffffffffffffffffffffffffffffffffff1673ffffffffffffffffffffffffffffffffffffffff16815260200190815260200160002060010160009054906101000a900460ff169050919050565b60018054906101000a900460ff1680610a7b5750600160009054906101000a900460ff16155b610aba576040517f08c379a0000000000000000000000000000000000000000000000000000000008152600401610ab190611f5a565b60405180910390fd5b600060018054906101000a900460ff161590508015610b085760018060016101000a81548160ff02191690831515021790555060018060006101000a81548160ff0219169083151502179055505b87600260006101000a81548173ffffffffffffffffffffffffffffffffffffffff021916908373ffffffffffffffffffffffffffffffffffffffff16021790555086600360006101000a81548173ffffffffffffffffffffffffffffffffffffffff021916908373ffffffffffffffffffffffffffffffffffffffff16021790555085600481905550846005819055508360078190555082600681905550600060088190555081600160026101000a81548173ffffffffffffffffffffffffffffffffffffffff021916908373ffffffffffffffffffffffffffffffffffffffff1602179055508015610c105760006001806101000a81548160ff0219169083151502179055505b5050505050505050565b60006006546008541115610c67576000610c33836112f8565b9050610c5f620f4240610c51836007546113bd90919063ffffffff16565b6113d390919063ffffffff16565b915050610cd5565b610cd2600654610cc4600754600960008773ffffffffffffffffffffffffffffffffffffffff1673ffffffffffffffffffffffffffffffffffffffff168152602001908152602001600020600001546113bd90919063ffffffff16565b6113d390919063ffffffff16565b90505b919050565b60065481565b600160029054906101000a900473ffffffffffffffffffffffffffffffffffffffff1673ffffffffffffffffffffffffffffffffffffffff163373ffffffffffffffffffffffffffffffffffffffff1614610d70576040517f08c379a0000000000000000000000000000000000000000000000000000000008152600401610d6790611fda565b60405180910390fd5b600260009054906101000a900473ffffffffffffffffffffffffffffffffffffffff1673ffffffffffffffffffffffffffffffffffffffff166370a08231306040518263ffffffff1660e01b8152600401610dcb9190611e27565b60206040518083038186803b158015610de357600080fd5b505afa158015610df7573d6000803e3d6000fd5b505050506040513d601f19601f82011682018060405250810190610e1b9190611913565b8210610e5c576040517f08c379a0000000000000000000000000000000000000000000000000000000008152600401610e5390611ffa565b60405180910390fd5b600360009054906101000a900473ffffffffffffffffffffffffffffffffffffffff1673ffffffffffffffffffffffffffffffffffffffff166370a08231306040518263ffffffff1660e01b8152600401610eb79190611e27565b60206040518083038186803b158015610ecf57600080fd5b505afa158015610ee3573d6000803e3d6000fd5b505050506040513d601f19601f82011682018060405250810190610f079190611913565b8110610f48576040517f08c379a0000000000000000000000000000000000000000000000000000000008152600401610f3f90611f1a565b60405180910390fd5b6000811115610f9f57610f9e3382600360009054906101000a900473ffffffffffffffffffffffffffffffffffffffff1673ffffffffffffffffffffffffffffffffffffffff166113ff9092919063ffffffff16565b5b6000821115610ff657610ff53383600260009054906101000a900473ffffffffffffffffffffffffffffffffffffffff1673ffffffffffffffffffffffffffffffffffffffff166113ff9092919063ffffffff16565b5b5050565b6004544311801561100c575060055443105b61104b576040517f08c379a000000000000000000000000000000000000000000000000000000000815260040161104290611f7a565b60405180910390fd5b6000811161108e576040517f08c379a000000000000000000000000000000000000000000000000000000000815260040161108590611efa565b60405180910390fd5b6110dd333083600260009054906101000a900473ffffffffffffffffffffffffffffffffffffffff1673ffffffffffffffffffffffffffffffffffffffff16611485909392919063ffffffff16565b6000600960003373ffffffffffffffffffffffffffffffffffffffff1673ffffffffffffffffffffffffffffffffffffffff16815260200190815260200160002060000154141561118c57600a339080600181540180825580915050600190039060005260206000200160009091909190916101000a81548173ffffffffffffffffffffffffffffffffffffffff021916908373ffffffffffffffffffffffffffffffffffffffff1602179055505b6111e181600960003373ffffffffffffffffffffffffffffffffffffffff1673ffffffffffffffffffffffffffffffffffffffff1681526020019081526020016000206000015461150e90919063ffffffff16565b600960003373ffffffffffffffffffffffffffffffffffffffff1673ffffffffffffffffffffffffffffffffffffffff1681526020019081526020016000206000018190555061123c8160085461150e90919063ffffffff16565b6008819055503373ffffffffffffffffffffffffffffffffffffffff167fe1fffcc4923d04b559f4d29a8bfc6cda04eb5b0d3c460751c2402c5c5cc9109c8260405161128891906120ba565b60405180910390a250565b600360009054906101000a900473ffffffffffffffffffffffffffffffffffffffff1681565b600a81815481106112c957600080fd5b906000526020600020016000915054906101000a900473ffffffffffffffffffffffffffffffffffffffff1681565b600061137d620f424061136f60085461136164e8d4a51000600960008973ffffffffffffffffffffffffffffffffffffffff1673ffffffffffffffffffffffffffffffffffffffff168152602001908152602001600020600001546113bd90919063ffffffff16565b6113d390919063ffffffff16565b6113d390919063ffffffff16565b9050919050565b60075481565b6000600a80549050905090565b600160029054906101000a900473ffffffffffffffffffffffffffffffffffffffff1681565b600081836113cb91906121e0565b905092915050565b600081836113e191906121af565b905092915050565b600081836113f7919061223a565b905092915050565b6114808363a9059cbb60e01b848460405160240161141e929190611e79565b604051602081830303815290604052907bffffffffffffffffffffffffffffffffffffffffffffffffffffffff19166020820180517bffffffffffffffffffffffffffffffffffffffffffffffffffffffff8381831617835250505050611524565b505050565b611508846323b872dd60e01b8585856040516024016114a693929190611e42565b604051602081830303815290604052907bffffffffffffffffffffffffffffffffffffffffffffffffffffffff19166020820180517bffffffffffffffffffffffffffffffffffffffffffffffffffffffff8381831617835250505050611524565b50505050565b6000818361151c9190612159565b905092915050565b6000611586826040518060400160405280602081526020017f5361666545524332303a206c6f772d6c6576656c2063616c6c206661696c65648152508573ffffffffffffffffffffffffffffffffffffffff166115eb9092919063ffffffff16565b90506000815111156115e657808060200190518101906115a69190611823565b6115e5576040517f08c379a00000000000000000000000000000000000000000000000000000000081526004016115dc9061205a565b60405180910390fd5b5b505050565b60606115fa8484600085611603565b90509392505050565b606082471015611648576040517f08c379a000000000000000000000000000000000000000000000000000000000815260040161163f90611f3a565b60405180910390fd5b61165185611717565b611690576040517f08c379a00000000000000000000000000000000000000000000000000000000081526004016116879061203a565b60405180910390fd5b6000808673ffffffffffffffffffffffffffffffffffffffff1685876040516116b99190611e10565b60006040518083038185875af1925050503d80600081146116f6576040519150601f19603f3d011682016040523d82523d6000602084013e6116fb565b606091505b509150915061170b82828661172a565b92505050949350505050565b600080823b905060008111915050919050565b6060831561173a5782905061178a565b60008351111561174d5782518084602001fd5b816040517f08c379a00000000000000000000000000000000000000000000000000000000081526004016117819190611ed8565b60405180910390fd5b9392505050565b6000813590506117a08161238e565b92915050565b6000815190506117b5816123a5565b92915050565b6000813590506117ca816123bc565b92915050565b6000813590506117df816123d3565b92915050565b6000815190506117f4816123d3565b92915050565b60006020828403121561180c57600080fd5b600061181a84828501611791565b91505092915050565b60006020828403121561183557600080fd5b6000611843848285016117a6565b91505092915050565b600080600080600080600060e0888a03121561186757600080fd5b60006118758a828b016117bb565b97505060206118868a828b016117bb565b96505060406118978a828b016117d0565b95505060606118a88a828b016117d0565b94505060806118b98a828b016117d0565b93505060a06118ca8a828b016117d0565b92505060c06118db8a828b01611791565b91505092959891949750929550565b6000602082840312156118fc57600080fd5b600061190a848285016117d0565b91505092915050565b60006020828403121561192557600080fd5b6000611933848285016117e5565b91505092915050565b6000806040838503121561194f57600080fd5b600061195d858286016117d0565b925050602061196e858286016117d0565b9150509250929050565b6119818161226e565b82525050565b61199081612280565b82525050565b60006119a182612127565b6119ab818561213d565b93506119bb8185602086016122ec565b80840191505092915050565b6119d0816122c8565b82525050565b60006119e182612132565b6119eb8185612148565b93506119fb8185602086016122ec565b611a048161237d565b840191505092915050565b6000611a1c601083612148565b91507f6e656564205f616d6f756e74203e2030000000000000000000000000000000006000830152602082019050919050565b6000611a5c601283612148565b91507f6e6f7420656e6f75676820746f6b656e203100000000000000000000000000006000830152602082019050919050565b6000611a9c602683612148565b91507f416464726573733a20696e73756666696369656e742062616c616e636520666f60008301527f722063616c6c00000000000000000000000000000000000000000000000000006020830152604082019050919050565b6000611b02602e83612148565b91507f496e697469616c697a61626c653a20636f6e747261637420697320616c72656160008301527f647920696e697469616c697a65640000000000000000000000000000000000006020830152604082019050919050565b6000611b68600c83612148565b91507f6e6f742069666f2074696d6500000000000000000000000000000000000000006000830152602082019050919050565b6000611ba8600283612148565b91507f6e6f0000000000000000000000000000000000000000000000000000000000006000830152602082019050919050565b6000611be8601683612148565b91507f6861766520796f75207061727469636970617465643f000000000000000000006000830152602082019050919050565b6000611c28600b83612148565b91507f61646d696e3a207775743f0000000000000000000000000000000000000000006000830152602082019050919050565b6000611c68601283612148565b91507f6e6f7420656e6f75676820746f6b656e203000000000000000000000000000006000830152602082019050919050565b6000611ca8601083612148565b91507f6e6f7420686172766573742074696d65000000000000000000000000000000006000830152602082019050919050565b6000611ce8601d83612148565b91507f416464726573733a2063616c6c20746f206e6f6e2d636f6e74726163740000006000830152602082019050919050565b6000611d28602a83612148565b91507f5361666545524332303a204552433230206f7065726174696f6e20646964206e60008301527f6f742073756363656564000000000000000000000000000000000000000000006020830152604082019050919050565b6000611d8e601f83612148565b91507f5265656e7472616e637947756172643a207265656e7472616e742063616c6c006000830152602082019050919050565b6000611dce601283612148565b91507f6e6f7468696e6720746f206861727665737400000000000000000000000000006000830152602082019050919050565b611e0a816122be565b82525050565b6000611e1c8284611996565b915081905092915050565b6000602082019050611e3c6000830184611978565b92915050565b6000606082019050611e576000830186611978565b611e646020830185611978565b611e716040830184611e01565b949350505050565b6000604082019050611e8e6000830185611978565b611e9b6020830184611e01565b9392505050565b6000602082019050611eb76000830184611987565b92915050565b6000602082019050611ed260008301846119c7565b92915050565b60006020820190508181036000830152611ef281846119d6565b905092915050565b60006020820190508181036000830152611f1381611a0f565b9050919050565b60006020820190508181036000830152611f3381611a4f565b9050919050565b60006020820190508181036000830152611f5381611a8f565b9050919050565b60006020820190508181036000830152611f7381611af5565b9050919050565b60006020820190508181036000830152611f9381611b5b565b9050919050565b60006020820190508181036000830152611fb381611b9b565b9050919050565b60006020820190508181036000830152611fd381611bdb565b9050919050565b60006020820190508181036000830152611ff381611c1b565b9050919050565b6000602082019050818103600083015261201381611c5b565b9050919050565b6000602082019050818103600083015261203381611c9b565b9050919050565b6000602082019050818103600083015261205381611cdb565b9050919050565b6000602082019050818103600083015261207381611d1b565b9050919050565b6000602082019050818103600083015261209381611d81565b9050919050565b600060208201905081810360008301526120b381611dc1565b9050919050565b60006020820190506120cf6000830184611e01565b92915050565b60006040820190506120ea6000830185611e01565b6120f76020830184611987565b9392505050565b60006040820190506121136000830185611e01565b6121206020830184611e01565b9392505050565b600081519050919050565b600081519050919050565b600081905092915050565b600082825260208201905092915050565b6000612164826122be565b915061216f836122be565b9250827fffffffffffffffffffffffffffffffffffffffffffffffffffffffffffffffff038211156121a4576121a361231f565b5b828201905092915050565b60006121ba826122be565b91506121c5836122be565b9250826121d5576121d461234e565b5b828204905092915050565b60006121eb826122be565b91506121f6836122be565b9250817fffffffffffffffffffffffffffffffffffffffffffffffffffffffffffffffff048311821515161561222f5761222e61231f565b5b828202905092915050565b6000612245826122be565b9150612250836122be565b9250828210156122635761226261231f565b5b828203905092915050565b60006122798261229e565b9050919050565b60008115159050919050565b60006122978261226e565b9050919050565b600073ffffffffffffffffffffffffffffffffffffffff82169050919050565b6000819050919050565b60006122d3826122da565b9050919050565b60006122e58261229e565b9050919050565b60005b8381101561230a5780820151818401526020810190506122ef565b83811115612319576000848401525b50505050565b7f4e487b7100000000000000000000000000000000000000000000000000000000600052601160045260246000fd5b7f4e487b7100000000000000000000000000000000000000000000000000000000600052601260045260246000fd5b6000601f19601f8301169050919050565b6123978161226e565b81146123a257600080fd5b50565b6123ae81612280565b81146123b957600080fd5b50565b6123c58161228c565b81146123d057600080fd5b50565b6123dc816122be565b81146123e757600080fd5b5056fea2646970667358221220c1807ca58e406637fd8e74551960cae25eb88873e18b7db102b49a74309d4f4564736f6c63430008000033",
  "linkReferences": {},
  "deployedLinkReferences": {}
}